:020000040000FA
:100000000C9462000C948A000C948A000C948A0070
:100010000C948A000C948A000C948A000C948A0038
:100020000C948A000C948A000C948A000C948A0028
:100030000C948A000C948A000C948A000C948A0018
:100040000C941A070C948A000C94E8060C94C206CF
:100050000C948A000C948A000C948A000C948A00F8
:100060000C9464070C948A00000000002400270010
:100070002A0000000000250028002B0000000000DE
:1000800023002600290004040404040404040202DA
:100090000202020203030303030301020408102007
:1000A0004080010204081020010204081020000012
:1000B0000008000201000003040700000000000027
:1000C0000000830811241FBECFEFD8E0DEBFCDBFF4
:1000D00011E0A0E0B1E0E8E9FDE102C005900D9279
:1000E000A83FB107D9F723E0A8EFB1E001C01D9206
:1000F000AA37B207E1F710E0C2E6D0E004C02197CA
:10010000FE010E94C40EC136D107C9F70E94D10872
:100110000C94CA0E0C94000008950895AF92BF92FB
:10012000CF92DF92EF92FF920F931F93CF93DF93C3
:100130006C017B018B01040F151FEB015E01AE18F2
:10014000BF08C017D10759F06991D601ED91FC9114
:100150000190F081E02DC6010995892B79F7C50141
:10016000DF91CF911F910F91FF90EF90DF90CF9093
:10017000BF90AF900895FC01538D448D252F30E042
:10018000842F90E0821B930B541710F0CF960895A4
:1001900001970895FC01918D828D981761F0A28DD1
:1001A000AE0FBF2FB11D5D968C91928D9F5F9F7397
:1001B000928F90E008958FEF9FEF0895FC01918D4D
:1001C000828D981731F0828DE80FF11D858D90E0BA
:1001D00008958FEF9FEF0895FC01918D228D892F57
:1001E00090E0805C9F4F821B91098F73992708953F
:1001F00083EC92E00E94EC0021E0892B09F420E0DE
:10020000822F089580E090E0892B29F00E94F80069
:1002100081110C9400000895FC01A48DA80FB92F42
:10022000B11DA35ABF4F2C91848D90E001968F731E
:100230009927848FA689B7892C93A089B1898C913D
:10024000837080648C93938D848D981306C002888C
:10025000F389E02D80818F7D80830895EF92FF9256
:100260000F931F93CF93DF93EC0181E0888F9B8DD9
:100270008C8D98131AC0E889F989808185FF15C093
:100280009FB7F894EE89FF896083E889F9898081B6
:100290008370806480839FBF81E090E0DF91CF9185
:1002A0001F910F91FF90EF900895F62E0B8D10E0A7
:1002B0000F5F1F4F0F731127E02E8C8D8E110CC016
:1002C0000FB607FCFACFE889F989808185FFF5CF61
:1002D000CE010E940C01F1CFEB8DEC0FFD2FF11D33
:1002E000E35AFF4FF0829FB7F8940B8FEA89FB899E
:1002F00080818062CFCFCF93DF93EC01888D8823FC
:10030000B9F0AA89BB89E889F9898C9185FD03C078
:10031000808186FD0DC00FB607FCF7CF8C9185FF5D
:10032000F2CF808185FFEDCFCE010E940C01E9CF95
:10033000DF91CF910895833081F028F4813099F0D6
:100340008230A9F008958730A9F08830C9F0843050
:10035000B1F4809180008F7D03C0809180008F7701
:1003600080938000089584B58F7784BD089584B507
:100370008F7DFBCF8091B0008F778093B000089580
:100380008091B0008F7DF9CFCF93DF93282F30E09D
:10039000F901E255FF4F8491F901E656FF4FD491E0
:1003A000F901EA57FF4FC491CC23A1F081110E94BB
:1003B0009B01EC2FF0E0EE0FFF1FE458FF4FA591DB
:1003C000B491EC91ED2381E090E009F480E0DF91BD
:1003D000CF91089580E090E0FACF1F93CF93DF9301
:1003E000282F30E0F901E255FF4F8491F901E656DC
:1003F000FF4FD491F901EA57FF4FC491CC23A9F0E4
:10040000162F81110E949B01EC2FF0E0EE0FFF1FD1
:10041000EE58FF4FA591B4918FB7F894EC9111115C
:1004200008C0D095DE23DC938FBFDF91CF911F9161
:100430000895DE2BF8CFCF93DF9390E0FC01E656D2
:10044000FF4F24918A579F4FFC0184918823C9F064
:1004500090E0880F991FFC01E859FF4FA591B491D6
:10046000FC01EE58FF4FC591D49161110DC09FB7AB
:10047000F8948C91209582238C938881282328835B
:100480009FBFDF91CF910895623051F49FB7F894E8
:100490003C91822F809583238C93E8812E2BEFCF84
:1004A0008FB7F894EC912E2B2C938FBFEACF8E5000
:1004B000806480937C0080917A00806480937A00CD
:1004C00080917A0086FDFCCF809178009091790030
:1004D00008953FB7F8948091AB029091AC02A0913F
:1004E000AD02B091AE0226B5A89B05C02F3F19F012
:1004F0000196A11DB11D3FBFBA2FA92F982F8827A4
:10050000BC01CD01620F711D811D911D42E0660F7E
:10051000771F881F991F4A95D1F708958F929F9250
:10052000AF92BF92CF92DF92EF92FF924B015C01AC
:100530000E9469026B017C010E9469026C197D09AD
:100540008E099F09683E734081059105A8F321E05B
:10055000821A9108A108B10888EEC80E83E0D81E5F
:10056000E11CF11C81149104A104B10429F7FF904E
:10057000EF90DF90CF90BF90AF909F908F900895B5
:1005800020916002260F3327331F21323105ECF40E
:1005900020918402FC0190E080E0243069F082E048
:1005A0000895A09160022191AC01405C5D4FA40FC1
:1005B000B52FB11D2C930196861798F38091600298
:1005C000680F6093600280E0089581E008951092C2
:1005D000840281E0809386021092850261E082E1CC
:1005E0000E94ED0161E083E10E94ED01E9EBF0E0A2
:1005F00080818E7F808380818D7F808388E480935B
:10060000B80085E48093BC000895CF93DF9391E018
:1006100090933F028823B9F0C091B800D091BA00FE
:100620008091BC008A7B8093BC0060E082E10E94E4
:10063000ED0160E083E10E94ED010E94E702D093AA
:10064000BA00C093B800DF91CF9108950895E0916A
:10065000B6028091B502E81730F4F0E0E65EFD4F97
:10066000808190E008958FEF9FEF08959091B602FA
:100670008091B5022FEF3FEF981748F4E92FF0E093
:10068000E65EFD4F208130E09F5F9093B602C90186
:1006900008958091B5029091B602891B990B089537
:1006A000CF92DF92EF92FF920F931F93CF93DF933E
:1006B0007C01CB018A0120911902222389F0EB01F0
:1006C0006B01C40ED51ECC15DD0569F06991D7010B
:1006D000ED91FC910190F081E02DC7010995F3CFD8
:1006E000642F0E94C002C801DF91CF911F910F912A
:1006F000FF90EF90DF90CF900895CF93DF931F92FC
:10070000CDB7DEB76983209119022223F9F0209139
:10071000B302203258F021E030E0FC013383228321
:1007200090E080E00F90DF91CF9108958091B40226
:10073000E82FF0E0E750FE4F998190838F5F809320
:10074000B4028093B30281E090E0ECCF61E0CE018F
:1007500001960E94C002F7CFCF92DF92EF92FF92F4
:100760000F931F93CF93DF93FC01C48181E08093AB
:100770001902C093F8011092B4021092B30280E6FD
:1007800093E00E947D03D091B302D13208F092C071
:100790000E9469026B017C0180918402811165C015
:1007A00082E08093840281E0809386028FEF8093C1
:1007B00083021092A802D093A702E9EFF1E0A7E824
:1007C000B2E080E0D81385C01092A9028091A902FE
:1007D000CC0FC82BC093A90280918502813009F00B
:1007E0007CC0109285020E9469026B017C0180919D
:1007F000A9028093BB0080913B0290913C02A091A2
:100800003D02B0913E02892B8A2B8B2B99F00E94DE
:10081000690200913B0210913C0220913D0230910F
:100820003E026C197D098E099F09061717072807D4
:100830003907E0F18091BC0083FDD9CF85EC80932E
:10084000BC000E9469026B017C01809184028230AD
:1008500009F445C0809183028F3F61F1809183024A
:10086000803241F18091830225C080913B029091BA
:100870003C02A0913D02B0913E02892B8A2B8B2B2A
:1008800009F48ACF0E94690200913B0210913C0258
:1008900020913D0230913E026C197D098E099F091D
:1008A000061717072807390708F076CF80913A0214
:1008B0000E9405031092B4021092B3021092190222
:1008C000DF91CF911F910F91FF90EF90DF90CF902C
:1008D000089591919D938F5F75CF85EEB0CF8091F4
:1008E0003B0290913C02A0913D02B0913E02892BC7
:1008F0008A2B8B2B09F4A9CF0E94690200913B023D
:1009000010913C0220913D0230913E026C197D090C
:100910008E099F09061717072807390708F095CF92
:10092000C5CF1092760360E08CE693E00C94AC03A4
:1009300081E08093760368E08CE693E00C94AC034E
:10094000089590E080E008950F931F93CF93DF9375
:10095000EC01042F6B8711E019878885880F9F8130
:100960009460892B2A8598E0299F90011124822B7D
:10097000607F682BCE010E94AC0319866885660FE4
:100980008A8528E0829FC0011124682B8F81682B03
:100990008B85807F682BCE010E94AC03011131C092
:1009A0008FE890E00197F1F719878F81846068855F
:1009B000660F682B8A8528E0829FC0011124682B6E
:1009C0008B8520E1829FC0011124682BCE010E94FB
:1009D000AC0319866885660F8A8528E0829FC0016E
:1009E0001124682B8F81682B8B8520E1829FC001A9
:1009F0001124682BCE01DF91CF911F910F910C94A0
:100A0000AC03DF91CF911F910F910895ECE6F3E0D5
:100A10001782108640E061E0CF010E94A4048BEFB2
:100A200098E10197F1F708951092730310927403FF
:100A300090917103891708F4982F8091720386179B
:100A400008F460E0E62FF0E0E050FF4F6081690FAE
:100A5000606840E08CE693E00E94A4048FE890E098
:100A60000197F1F7089521E0FC012783108640E00B
:100A70000E94A4048FE990E00197F1F781E090E0F3
:100A80000895FB0101900020E9F73197AF01461B63
:100A9000570BDC01ED91FC910280F381E02D09946C
:100AA0008F929F92AF92BF920F931F93CF93DF933A
:100AB000CDB7DEB7A1970FB6F894DEBF0FBECDBF9E
:100AC00019A2423008F44AE08E010F5D1F4F842EB8
:100AD000912CB12CA12CA50194010E94A20EE62F0D
:100AE000B901CA01EA3004F5E05DD801EE938D0149
:100AF000232B242B252B79F790E080E0109729F009
:100B0000BD018CE693E00E944105A1960FB6F894D2
:100B1000DEBF0FBECDBFDF91CF911F910F91BF9070
:100B2000AF909F908F900895E95CDFCFBC018CE679
:100B300093E00C9441054F925F926F927F928F9257
:100B40009F92AF92BF92CF92DF92EF92FF920F935C
:100B50001F93CF936B017C01742EAC019B010E940B
:100B60009D0E64E371E0811126C046015701E894AF
:100B7000B7F82FEF3FEF4FE75FE7C501B4010E94E1
:100B80009D0E81110CC02FEF3FEF4FE75FE7C501CE
:100B9000B4010E94D30C68E371E0181664F02FEFE3
:100BA0003FEF4FE75FE4C701B6010E942B0E181616
:100BB000ACF46CE371E08CE693E0CF911F910F9160
:100BC000FF90EF90DF90CF90BF90AF909F908F906D
:100BD0007F906F905F904F900C9441052FEF3FEF07
:100BE0004FE75FECC701B6010E94D30C87FDE1CF50
:100BF00020E030E0A901C701B6010E94D30C10E04B
:100C000000E087FF0AC06DE28CE693E00E943305A6
:100C10008C01F7FAF094F7F8F094C0E060E070E02F
:100C200080E09FE37C1641F020E030E040E251E4B8
:100C30000E94D80CCF5FF6CFA70196010E94670CE7
:100C40002B013C010E944A0D4B015C014AE00E94CD
:100C500050057C01E00EF11ECC23C1F1C501B401A9
:100C60000E94790D9B01AC01C301B2010E94660C88
:100C70004B015C016EE28CE693E00E943305E80EC6
:100C8000F91EC15018F120E030E040E251E4C50106
:100C9000B4010E94300E2B013C010E944A0D4B0111
:100CA000B12CA12C4AE0C501B4010E945005E80E08
:100CB000F91EC501B4010E94790D9B01AC01C3016D
:100CC000B2010E94660C4B015C01DBCFC701CF91E2
:100CD0001F910F91FF90EF90DF90CF90BF90AF905A
:100CE0009F908F907F906F905F904F900895CF93DB
:100CF000DF93BC0183EC92E00E944105EC0160E4CB
:100D000071E083EC92E00E9441058C0F9D1FDF9102
:100D1000CF91089585ED8093BC0080913B02909126
:100D20003C02A0913D02B0913E020796A11DB11D6B
:100D300023E0B695A795979587952A95D1F72091A9
:100D4000BC0024FD03C010928402089540913B0230
:100D500050913C0260913D0270913E02452B462B22
:100D6000472B69F30097A105B10541F025E32A95CA
:100D7000F1F700000197A109B109E1CF80913A0292
:100D80000C9405031F920F920FB60F9211242F930C
:100D90003F934F935F936F937F938F939F93AF9303
:100DA000BF93EF93FF9383EC92E00E940C01FF91BD
:100DB000EF91BF91AF919F918F917F916F915F91D3
:100DC0004F913F912F910F900FBE0F901F9018954C
:100DD0001F920F920FB60F9211242F938F939F9310
:100DE000EF93FF93E091D302F091D4028081E091E0
:100DF000D902F091DA0282FD1BC090818091DC0261
:100E00008F5F8F732091DD02821741F0E091DC0249
:100E1000F0E0ED53FD4F958F8093DC02FF91EF9151
:100E20009F918F912F910F900FBE0F901F9018954B
:100E30008081F4CF1F920F920FB60F9211242F933F
:100E40003F938F939F93AF93BF938091BB029091F9
:100E5000BC02A091BD02B091BE023091AA0223E073
:100E6000230F2D3758F50196A11DB11D2093AA021D
:100E70008093BB029093BC02A093BD02B093BE02CC
:100E80008091AB029091AC02A091AD02B091AE0204
:100E90000196A11DB11D8093AB029093AC02A0936B
:100EA000AD02B093AE02BF91AF919F918F913F91F0
:100EB0002F910F900FBE0F901F90189526E8230FCB
:100EC0000296A11DB11DD2CF1F920F920FB60F92A5
:100ED00011242F933F934F935F936F937F938F933F
:100EE0009F93AF93BF93EF93FF938091B900887F57
:100EF000803609F44AC0F0F5883209F4A7C018F525
:100F0000803109F49BC0B8F4882309F4F9C0883013
:100F100009F494C0FF91EF91BF91AF919F918F9190
:100F20007F916F915F914F913F912F910F900FBEE5
:100F30000F901F901895883109F488C0803251F7BE
:100F40008093830214C0803409F49DC040F4803340
:100F5000B9F38833F9F68093830285ECB0C080350D
:100F600009F485C0883509F496C0883499F60E9442
:100F70008A06D0CF883909F48CC038F5883729F033
:100F800050F4883611F0803729F683E0809384028C
:100F90001092820257C0883809F47BC0803919F05A
:100FA000803809F0B7CF80918202803208F071C09A
:100FB000E091820281E08E0F809382028091BB00DB
:100FC000F0E0EE59FD4F80833DC0803B39F0E0F406
:100FD000803A09F479C0883A09F09CCF84E0809384
:100FE00084021092610210926002E091B102F091CD
:100FF000B20209958091600281110FC081E0809357
:1010000060021092400209C0803C09F4A6CF883CDF
:1010100009F4A3CF883B09F07DCFE091610281E024
:101020008E0F80936102F0E0E05CFD4F8081809341
:10103000BB00909161028091600229C08091A90259
:101040008093BB0085EC8093BC0064CF9091A80294
:101050008091A702981758F5E091A80281E08E0FC1
:101060008093A802F0E0E957FD4F8081E9CFE0913D
:10107000A80281E08E0F8093A8028091BB00F0E06F
:10108000E957FD4F80839091A8028091A70298179D
:10109000C8F285E8D8CFE091A80281E08E0F809356
:1010A000A8028091BB00F0E0E957FD4F808380915A
:1010B000860281115CCF81E08093850284EA80936F
:1010C000BC001092840226CF85EC8093BC00109265
:1010D000840280918202803230F4E0918202F0E05A
:1010E000EE59FD4F10826091820270E0E091AF02F4
:1010F000F091B00282E692E00995109282020ACF46
:101100001092830234CFE3ECF2E01382128288EE75
:1011100093E0A0E0B0E084839583A683B78328E0C2
:1011200031E03183208325EC30E03587248724ECBF
:1011300030E03787268720EC30E0318B208B21ECA4
:1011400030E0338B228B22EC30E0358B248B26EC85
:1011500030E0378B268B118E128E138E148EE0E6C4
:10116000F3E01382128284839583A683B7838AE196
:1011700091E091838083ECE6F3E0138212828CE2AB
:1011800091E09183808387E284838FE0858381E08F
:10119000868317821086118612861386148615861A
:1011A0000895789484B5826084BD84B5816084BDDF
:1011B00085B5826085BD85B5816085BD80916E00F5
:1011C000816080936E001092810080918100826026
:1011D0008093810080918100816080938100809163
:1011E00080008160809380008091B1008460809352
:1011F000B1008091B00081608093B00080917A004E
:10120000846080937A0080917A00826080937A0073
:1012100080917A00816080937A0080917A00806862
:1012200080937A001092C1001092B6021092B5021B
:101230001092B4021092B3020E94E7028CE890E090
:101240009093B2028093B1028DE890E09093B00247
:101250008093AF0260E08CE693E00E94AC0362E30F
:1012600070E080E090E00E948E0210927303109272
:10127000740341E060E38CE693E00E94A4048BE9F0
:1012800091E40197F1F741E060E38CE693E00E947E
:10129000A40483E592E00197F1F741E060E38CE676
:1012A00093E00E94A404CFE8D0E0CE010197F1F7CB
:1012B00041E060E28CE693E00E94A404CE01019735
:1012C000F1F740E068E28CE693E00E94A404CE01CE
:1012D0000197F1F7109273031092740360917803F1
:1012E000862F8460809378036C6040E08CE693E006
:1012F0000E94A404CE010197F1F70E940605109206
:1013000073031092740360917903862F8260809337
:101310007903666040E08CE693E00E94A404219784
:10132000F1F70E949804E091D302F091D40282E098
:101330008083E091CF02F091D0021082E091D1023F
:10134000F091D2028FEC80831092DB02E091D70201
:10135000F091D80286E08083E091D502F091D60228
:10136000808180618083E091D502F091D6028081F6
:1013700088608083E091D502F091D60280818068F8
:101380008083E091D502F091D60280818F7D8083A9
:1013900060E08EE00E941B0260E08FE00E941B0272
:1013A00062E087E00E941B0262E088E00E941B026C
:1013B00062E089E00E941B0261E083E00E941B0260
:1013C00061E084E00E941B0261E085E00E941B0254
:1013D00061E086E00E941B0261E08CE00E941B023B
:1013E00061E08CE00E94ED0166E970E080E090E051
:1013F0000E948E0260E08CE00E94ED0162E370E0EA
:1014000080E090E00E948E0261E08CE00E94ED019D
:1014100066E970E080E090E00E948E0260E08CE07F
:101420000E94ED010E94980462E370E080E090E089
:101430000E948E0260E080E00E94140583E491E047
:101440000E94960561E080E00E94140584E591E029
:101450000E94960564EC79E080E090E00E948E02A4
:101460000E9406050E94910462E370E080E090E033
:101470000E948E020E94980462E370E080E090E097
:101480000E948E0260E080E00E94140585E691E0F3
:101490000E94960561E080E00E94140586E791E0D5
:1014A0000E94960564EC79E080E090E00E948E0254
:1014B0000E9406050E94910462E370E080E090E0E3
:1014C0000E948E020E94980462E370E080E090E047
:1014D0000E948E0260E080E00E94140587E891E09F
:1014E0000E94960561E080E00E94140588E991E081
:1014F0000E94960564EC79E080E090E00E948E0204
:101500000E9406050E94910462E370E080E090E092
:101510000E948E0261E08CE00E94ED0166E970E0BD
:1015200080E090E00E948E0260E08CE00E94ED017D
:1015300000E010E0C1E087E00E94C401892B09F4BB
:1015400081C089E00E94C401892B09F07BC0809191
:10155000BA02882309F46CC089EA91E00E947706F8
:1015600069E170E080E090E00E948E0261E083E03B
:101570000E94ED0160E084E00E94ED0161E085E001
:101580000E94ED0189E00E94C401892B59F52FB713
:10159000F8948091BB029091BC02A091BD02B091E1
:1015A000BE022FBF4091BF025091C0026091C102A4
:1015B0007091C202841B950BA60BB70B883E93401B
:1015C000A105B10578F089E00E94C401892BD1F210
:1015D00060E083E00E94ED0160E084E00E94ED01A4
:1015E00060E0CDCF2FB7F8948091BB029091BC0200
:1015F000A091BD02B091BE022FBF8093BF02909315
:10160000C002A093C102B093C20289E00E94C4014B
:10161000892B71F460E085E00E94ED0164EF71E0D8
:1016200080E090E00E948E0261E084E00E94ED0183
:10163000C093B9021092BA026AE070E080E090E0D4
:101640000E948E0287E00E94C401892B91F4809150
:10165000B902882371F01092B902C093BA0287EBE5
:1016600091E00E9477066AE070E080E090E00E94DE
:101670008E0288E00E94C401892B21F18091B8027A
:101680008823B1F081EC91E00E94770669E170E077
:1016900080E090E00E948E0260E083E00E94ED0115
:1016A00060E084E00E94ED0160E085E00E94ED01D1
:1016B000C093B7021092B8026AE070E080E090E058
:1016C0000E948E0288E00E94C401892B91F48091CF
:1016D000B702882371F01092B702C093B8028FEC62
:1016E00091E00E9477066AE070E080E090E00E945E
:1016F0008E0289E00E94C401892B09F4E4C061E0F4
:1017000086E00E94ED0160E083E00E94ED0160E070
:1017100084E00E94ED0160E085E00E94ED016AE056
:1017200070E080E090E00E948E022FB7F8948091E4
:10173000BB029091BC02A091BD02B091BE022FBF2E
:101740004091BF025091C0026091C1027091C202EB
:10175000841B950BA60BB70B883E9340A105B105E2
:1017600008F4A5C060E080E00E94140589ED91E0D6
:101770000E94960560E08AE00E94140589E00E94BC
:10178000C401892B21F084EE91E00E94960589E046
:101790000E94C401892B21F08BEE91E00E949605F6
:1017A00061E080E00E94140582EF91E00E949605BE
:1017B00061E082E00E9414058EE00E945702BC01A5
:1017C000990F880B990B0E947B0D20E030E040EAD6
:1017D00050E40E94300E20E030EC4FE754E40E94C9
:1017E000D80C2AE037ED43E25CE30E94D80C42E0DB
:1017F0000E949B0561E087E00E94140586EF91E05E
:101800000E94960561E089E00E94140585EF91E051
:101810000E94960561E08BE00E9414058FE00E9413
:101820005702BC01990F880B990B0E947B0D20E099
:1018300030E040EA50E40E94300E20E030EC4FE708
:1018400054E40E94D80C2AE037ED43E25CE30E94A6
:10185000D80C42E00E949B0561E08FE00E941405D5
:1018600086EF91E00E94960564E670E080E090E0EB
:101870000E948E020E9406050E94910462E370E0BD
:1018800080E090E00E948E022FB7F8948091BB0216
:101890009091BC02A091BD02B091BE022FBF809377
:1018A000BF029093C002A093C102B093C20201157F
:1018B000110509F440CE0E94F800882309F43BCEBC
:1018C0000E94000038CE60E086E027CF5058BB274A
:1018D000AA270E947E0C0C94F10D0E94E30D38F0B3
:1018E0000E94EA0D20F039F49F3F19F426F40C947D
:1018F000E00D0EF4E095E7FB0C94DA0DE92F0E9461
:10190000020E58F3BA17620773078407950720F091
:1019100079F4A6F50C94240E0EF4E0950B2EBA2F54
:10192000A02D0B01B90190010C01CA01A0011124E5
:10193000FF27591B99F0593F50F4503E68F11A1691
:10194000F040A22F232F342F4427585FF3CF469522
:1019500037952795A795F0405395C9F77EF41F1644
:10196000BA0B620B730B840BBAF09150A1F0FF0F0E
:10197000BB1F661F771F881FC2F70EC0BA0F621FFA
:10198000731F841F48F4879577956795B795F795EA
:101990009E3F08F0B0CF9395880F08F09927EE0F7F
:1019A0009795879508950E94B60D08F481E00895F3
:1019B0000E94EC0C0C94F10D0E94EA0D58F00E946C
:1019C000E30D40F029F45F3F29F00C94DA0D51113A
:1019D0000C94250E0C94E00D0E94020E68F39923DE
:1019E000B1F3552391F3951B550BBB27AA2762171B
:1019F0007307840738F09F5F5F4F220F331F441F28
:101A0000AA1FA9F335D00E2E3AF0E0E832D091505B
:101A10005040E695001CCAF72BD0FE2F29D0660F48
:101A2000771F881FBB1F261737074807AB07B0E88B
:101A300009F0BB0B802DBF01FF2793585F4F3AF091
:101A40009E3F510578F00C94DA0D0C94250E5F3F03
:101A5000E4F3983ED4F3869577956795B795F79517
:101A60009F5FC9F7880F911D9695879597F90895FF
:101A7000E1E0660F771F881FBB1F6217730784079B
:101A8000BA0720F0621B730B840BBA0BEE1F88F7AA
:101A9000E09508950E940A0E88F09F5798F0B92F9C
:101AA0009927B751B0F0E1F0660F771F881F991F93
:101AB0001AF0BA95C9F714C0B13091F00E94240E03
:101AC000B1E008950C94240E672F782F8827B85F13
:101AD00039F0B93FCCF3869577956795B395D9F7EB
:101AE0003EF490958095709561957F4F8F4F9F4FF5
:101AF0000895E89409C097FB3EF490958095709501
:101B000061957F4F8F4F9F4F9923A9F0F92F96E949
:101B1000BB279395F695879577956795B795F111BE
:101B2000F8CFFAF4BB0F11F460FF1BC06F5F7F4F5B
:101B30008F4F9F4F16C0882311F096E911C077236D
:101B400021F09EE8872F762F05C0662371F096E876
:101B5000862F70E060E02AF09A95660F771F881F45
:101B6000DAF7880F9695879597F90895990F0008E9
:101B7000550FAA0BE0E8FEEF16161706E807F9075F
:101B8000C0F012161306E407F50798F0621B730BFA
:101B9000840B950B39F40A2661F0232B242B252B7B
:101BA00021F408950A2609F4A140A6958FEF811D1E
:101BB000811D089597F99F6780E870E060E00895BF
:101BC0009FEF80EC089500240A9416161706180655
:101BD0000906089500240A94121613061406050631
:101BE0000895092E0394000C11F4882352F0BB0FC2
:101BF00040F4BF2B11F460FF04C06F5F7F4F8F4F25
:101C00009F4F089557FD9058440F551F59F05F3F5F
:101C100071F04795880F97FB991F61F09F3F79F00E
:101C200087950895121613061406551FF2CF469590
:101C3000F1DF08C0161617061806991FF1CF869512
:101C40007105610508940895E894BB2766277727F6
:101C5000CB0197F908950E94B60D08F48FEF08950F
:101C60000E94430E0C94F10D0E94E30D38F00E9487
:101C7000EA0D20F0952311F00C94DA0D0C94E00D90
:101C800011240C94250E0E94020E70F3959FC1F34F
:101C9000950F50E0551F629FF001729FBB27F00D1A
:101CA000B11D639FAA27F00DB11DAA1F649F66276F
:101CB000B00DA11D661F829F2227B00DA11D621FBE
:101CC000739FB00DA11D621F839FA00D611D221F78
:101CD000749F3327A00D611D231F849F600D211D5C
:101CE000822F762F6A2F11249F5750409AF0F1F0DF
:101CF00088234AF0EE0FFF1FBB1F661F771F881F48
:101D000091505040A9F79E3F510580F00C94DA0D98
:101D10000C94250E5F3FE4F3983ED4F386957795B7
:101D20006795B795F795E7959F5FC1F7FE2B880FED
:101D3000911D9695879597F908950E94B60D880B89
:101D4000990B0895A1E21A2EAA1BBB1BFD010DC021
:101D5000AA1FBB1FEE1FFF1FA217B307E407F5075B
:101D600020F0A21BB30BE40BF50B661F771F881F37
:101D7000991F1A9469F760957095809590959B01CD
:101D8000AC01BD01CF010895EE0FFF1F0590F49146
:101D9000E02D0994F894FFCF004014540000000097
:101DA0002E018E00BB007B01EC00CA00DE000000AB
:101DB00000007D035003A1042603490336032703D3
:101DC0000000000033058E00A104A0046E616E00C7
:101DD000696E66006F7666000D0A00436F6C6F6374
:101DE0006172206E6F6D6520756E69006E6F6D6536
:101DF00020206469736369706C696E61006E6F6D39
:101E00006520646F20616C756E6F20202000524148
:101E100020646F20616C756E6F2020202020006E82
:101E20006F6D6520646F20657175697020202000DA
:101E300053656A612062656D2076696E646F20204B
:101E40000070617274697520627431212020005223
:101E50004553455420627431007061727469752075
:101E6000627432212020005245534554206274325E
:101E700000494E5445524C4F434B3A004154495649
:101E80004F21004C4956524521004D54004D43000E
:107E0000112484B714BE81FFF0D085E080938100F7
:107E100082E08093C00088E18093C10086E0809377
:107E2000C20080E18093C4008EE0C9D0259A86E02C
:107E300020E33CEF91E0309385002093840096BBD3
:107E4000B09BFECF1D9AA8958150A9F7CC24DD24C4
:107E500088248394B5E0AB2EA1E19A2EF3E0BF2EE7
:107E6000A2D0813461F49FD0082FAFD0023811F036
:107E7000013811F484E001C083E08DD089C08234E0
:107E800011F484E103C0853419F485E0A6D080C0E4
:107E9000853579F488D0E82EFF2485D0082F10E0AE
:107EA000102F00270E291F29000F111F8ED06801E7
:107EB0006FC0863521F484E090D080E0DECF843638
:107EC00009F040C070D06FD0082F6DD080E0C81688
:107ED00080E7D80618F4F601B7BEE895C0E0D1E017
:107EE00062D089930C17E1F7F0E0CF16F0E7DF06D8
:107EF00018F0F601B7BEE89568D007B600FCFDCFD4
:107F0000A601A0E0B1E02C9130E011968C91119780
:107F100090E0982F8827822B932B1296FA010C0160
:107F200087BEE89511244E5F5F4FF1E0A038BF0790
:107F300051F7F601A7BEE89507B600FCFDCF97BE46
:107F4000E89526C08437B1F42ED02DD0F82E2BD052
:107F50003CD0F601EF2C8F010F5F1F4F84911BD097
:107F6000EA94F801C1F70894C11CD11CFA94CF0C13
:107F7000D11C0EC0853739F428D08EE10CD085E9AC
:107F80000AD08FE07ACF813511F488E018D01DD067
:107F900080E101D065CF982F8091C00085FFFCCF94
:107FA0009093C60008958091C00087FFFCCF809118
:107FB000C00084FD01C0A8958091C6000895E0E648
:107FC000F0E098E1908380830895EDDF803219F02E
:107FD00088E0F5DFFFCF84E1DECF1F93182FE3DFCA
:107FE0001150E9F7F2DF1F91089580E0E8DFEE27F6
:047FF000FF270994CA
:027FFE00040479
:00000001FF
