:020000040000FA
:100000000C9462000C948A000C948A000C948A0070
:100010000C948A000C948A000C948A000C948A0038
:100020000C948A000C948A000C948A000C948A0028
:100030000C948A000C948A000C948A000C948A0018
:100040000C9426070C948A000C94F4060C94CE06AB
:100050000C948A000C948A000C948A000C948A00F8
:100060000C9470070C948A00000000002400270004
:100070002A0000000000250028002B0000000000DE
:1000800023002600290004040404040404040202DA
:100090000202020203030303030301020408102007
:1000A0004080010204081020010204081020000012
:1000B0000008000201000003040700000000000027
:1000C00000008F0811241FBECFEFD8E0DEBFCDBFE8
:1000D00011E0A0E0B1E0E2EEFDE102C005900D927A
:1000E000A43FB107D9F723E0A4EFB1E001C01D920E
:1000F000A837B207E1F710E0C2E6D0E004C02197CC
:10010000FE010E94E90EC136D107C9F70E94DD0841
:100110000C94EF0E0C94000008950895AF92BF92D6
:10012000CF92DF92EF92FF920F931F93CF93DF93C3
:100130006C017B018B01040F151FEB015E01AE18F2
:10014000BF08C017D10759F06991D601ED91FC9114
:100150000190F081E02DC6010995892B79F7C50141
:10016000DF91CF911F910F91FF90EF90DF90CF9093
:10017000BF90AF900895FC01538D448D252F30E042
:10018000842F90E0821B930B541710F0CF960895A4
:1001900001970895FC01918D828D981761F0A28DD1
:1001A000AE0FBF2FB11D5D968C91928D9F5F9F7397
:1001B000928F90E008958FEF9FEF0895FC01918D4D
:1001C000828D981731F0828DE80FF11D858D90E0BA
:1001D00008958FEF9FEF0895FC01918D228D892F57
:1001E00090E0805C9F4F821B91098F73992708953F
:1001F00081EC92E00E94EC0021E0892B09F420E0E0
:10020000822F089580E090E0892B29F00E94F80069
:1002100081110C9400000895FC01A48DA80FB92F42
:10022000B11DA35ABF4F2C91848D90E001968F731E
:100230009927848FA689B7892C93A089B1898C913D
:10024000837080648C93938D848D981306C002888C
:10025000F389E02D80818F7D80830895EF92FF9256
:100260000F931F93CF93DF93EC0181E0888F9B8DD9
:100270008C8D98131AC0E889F989808185FF15C093
:100280009FB7F894EE89FF896083E889F9898081B6
:100290008370806480839FBF81E090E0DF91CF9185
:1002A0001F910F91FF90EF900895F62E0B8D10E0A7
:1002B0000F5F1F4F0F731127E02E8C8D8E110CC016
:1002C0000FB607FCFACFE889F989808185FFF5CF61
:1002D000CE010E940C01F1CFEB8DEC0FFD2FF11D33
:1002E000E35AFF4FF0829FB7F8940B8FEA89FB899E
:1002F00080818062CFCFCF93DF93EC01888D8823FC
:10030000B9F0AA89BB89E889F9898C9185FD03C078
:10031000808186FD0DC00FB607FCF7CF8C9185FF5D
:10032000F2CF808185FFEDCFCE010E940C01E9CF95
:10033000DF91CF910895833081F028F4813099F0D6
:100340008230A9F008958730A9F08830C9F0843050
:10035000B1F4809180008F7D03C0809180008F7701
:1003600080938000089584B58F7784BD089584B507
:100370008F7DFBCF8091B0008F778093B000089580
:100380008091B0008F7DF9CFCF93DF93282F30E09D
:10039000F901E255FF4F8491F901E656FF4FD491E0
:1003A000F901EA57FF4FC491CC23A1F081110E94BB
:1003B0009B01EC2FF0E0EE0FFF1FE458FF4FA591DB
:1003C000B491EC91ED2381E090E009F480E0DF91BD
:1003D000CF91089580E090E0FACF1F93CF93DF9301
:1003E000282F30E0F901E255FF4F8491F901E656DC
:1003F000FF4FD491F901EA57FF4FC491CC23A9F0E4
:10040000162F81110E949B01EC2FF0E0EE0FFF1FD1
:10041000EE58FF4FA591B4918FB7F894EC9111115C
:1004200008C0D095DE23DC938FBFDF91CF911F9161
:100430000895DE2BF8CFCF93DF9390E0FC01E656D2
:10044000FF4F24918A579F4FFC0184918823C9F064
:1004500090E0880F991FFC01E859FF4FA591B491D6
:10046000FC01EE58FF4FC591D49161110DC09FB7AB
:10047000F8948C91209582238C938881282328835B
:100480009FBFDF91CF910895623051F49FB7F894E8
:100490003C91822F809583238C93E8812E2BEFCF84
:1004A0008FB7F894EC912E2B2C938FBFEACF8E5000
:1004B000806480937C0080917A00806480937A00CD
:1004C00080917A0086FDFCCF809178009091790030
:1004D00008953FB7F8948091AB029091AC02A0913F
:1004E000AD02B091AE0226B5A89B05C02F3F19F012
:1004F0000196A11DB11D3FBFBA2FA92F982F8827A4
:10050000BC01CD01620F711D811D911D42E0660F7E
:10051000771F881F991F4A95D1F708958F929F9250
:10052000AF92BF92CF92DF92EF92FF924B015C01AC
:100530000E9469026B017C010E9469026C197D09AD
:100540008E099F09683E734081059105A8F321E05B
:10055000821A9108A108B10888EEC80E83E0D81E5F
:10056000E11CF11C81149104A104B10429F7FF904E
:10057000EF90DF90CF90BF90AF909F908F900895B5
:100580002FB7F8946091A7027091A8028091A902F8
:100590009091AA022FBF089520915C02260F332765
:1005A000331F21323105ECF420918002FC0190E0F0
:1005B00080E0243069F082E00895A0915C022191EE
:1005C000AC01445C5D4FA40FB52FB11D2C93019677
:1005D000861798F380915C02680F60935C0280E05C
:1005E000089581E008951092800281E08093820254
:1005F0001092810261E082E10E94ED0161E083E1FD
:100600000E94ED01E9EBF0E080818E7F80838081A4
:100610008D7F808388E48093B80085E48093BC005C
:100620000895CF93DF9391E090933B028823B9F034
:10063000C091B800D091BA008091BC008A7B8093B1
:10064000BC0060E082E10E94ED0160E083E10E9475
:10065000ED010E94F302D093BA00C093B800DF917D
:10066000CF9108950895E091B6028091B502E81700
:1006700030F4F0E0EA5EFD4F808190E008958FEF66
:100680009FEF08959091B6028091B5022FEF3FEF52
:10069000981748F4E92FF0E0EA5EFD4F208130E042
:1006A0009F5F9093B602C90108958091B502909121
:1006B000B602891B990B0895CF92DF92EF92FF92B9
:1006C0000F931F93CF93DF937C01CB018A0120917D
:1006D0001502222389F0EB016B01C40ED51ECC1547
:1006E000DD0569F06991D701ED91FC910190F081F0
:1006F000E02DC7010995F3CF642F0E94CC02C801F9
:10070000DF91CF911F910F91FF90EF90DF90CF90ED
:100710000895CF93DF931F92CDB7DEB76983209101
:1007200015022223F9F02091B302203258F021E083
:1007300030E0FC013383228390E080E00F90DF9172
:10074000CF9108958091B402E82FF0E0EB50FE4F76
:10075000998190838F5F8093B4028093B30281E08C
:1007600090E0ECCF61E0CE0101960E94CC02F7CF81
:10077000CF92DF92EF92FF920F931F93CF93DF936D
:10078000FC01C48181E080931502C093F4011092B2
:10079000B4021092B3028EE593E00E948903D091D7
:1007A000B302D13208F092C00E9469026B017C0151
:1007B00080918002811165C082E08093800281E097
:1007C000809382028FEF80937F021092A402D093D5
:1007D000A302E5EFF1E0A3E8B2E080E0D81385C022
:1007E0001092A5028091A502CC0FC82BC093A50240
:1007F00080918102813009F07CC0109281020E94B8
:1008000069026B017C018091A5028093BB008091FD
:10081000370290913802A0913902B0913A02892BA7
:100820008A2B8B2B99F00E9469020091370210915C
:1008300038022091390230913A026C197D098E09F3
:100840009F090617170728073907E0F18091BC00B8
:1008500083FDD9CF85EC8093BC000E9469026B01B7
:100860007C0180918002823009F445C080917F0232
:100870008F3F61F180917F02803241F180917F0250
:1008800025C08091370290913802A0913902B09131
:100890003A02892B8A2B8B2B09F48ACF0E9469029A
:1008A00000913702109138022091390230913A02BA
:1008B0006C197D098E099F09061717072807390744
:1008C00008F076CF809136020E9411031092B40294
:1008D0001092B30210921502DF91CF911F910F91E8
:1008E000FF90EF90DF90CF90089591919D938F5F4F
:1008F00075CF85EEB0CF8091370290913802A091EC
:100900003902B0913A02892B8A2B8B2B09F4A9CF9B
:100910000E94690200913702109138022091390239
:1009200030913A026C197D098E099F090617170745
:100930002807390708F095CFC5CF1092740360E0FF
:100940008AE693E00C94B80381E08093740368E036
:100950008AE693E00C94B803089590E080E008954F
:100960000F931F93CF93DF93EC01042F6B8711E05C
:1009700019878885880F9F819460892B2A8598E044
:10098000299F90011124822B607F682BCE010E9449
:10099000B80319866885660F8A8528E0829FC001A2
:1009A0001124682B8F81682B8B85807F682BCE016B
:1009B0000E94B803011131C08FE890E00197F1F770
:1009C00019878F8184606885660F682B8A8528E087
:1009D000829FC0011124682B8B8520E1829FC0017A
:1009E0001124682BCE010E94B80319866885660F12
:1009F0008A8528E0829FC0011124682B8F81682B93
:100A00008B8520E1829FC0011124682BCE01DF91EC
:100A1000CF911F910F910C94B803DF91CF911F914B
:100A20000F910895EAE6F3E01782108640E061E056
:100A3000CF010E94B0048BEF98E10197F1F7089580
:100A4000109271031092720390916F03891708F44A
:100A5000982F80917003861708F460E0E62FF0E08D
:100A6000E050FF4F6081690F606840E08AE693E0E4
:100A70000E94B0048FE890E00197F1F7089521E01B
:100A8000FC012783108640E00E94B0048FE990E0CB
:100A90000197F1F781E090E00895FB0101900020BB
:100AA000E9F73197AF01461B570BDC01ED91FC9143
:100AB0000280F381E02D09948F929F92AF92BF92B2
:100AC0000F931F93CF93DF93CDB7DEB7A1970FB6E8
:100AD000F894DEBF0FBECDBF19A2423008F44AE041
:100AE0008E010F5D1F4F842E912CB12CA12CA501DE
:100AF00094010E94C70EE62FB901CA01EA3004F53D
:100B0000E05DD801EE938D01232B242B252B79F763
:100B100090E080E0109729F0BD018AE693E00E9402
:100B20004D05A1960FB6F894DEBF0FBECDBFDF9185
:100B3000CF911F910F91BF90AF909F908F9008958C
:100B4000E95CDFCFBC018AE693E00C944D054F923F
:100B50005F926F927F928F929F92AF92BF92CF924D
:100B6000DF92EF92FF920F931F93CF936B017C0163
:100B7000742EAC019B010E94C20E64E371E08111EE
:100B800026C046015701E894B7F82FEF3FEF4FE733
:100B90005FE7C501B4010E94C20E81110CC02FEFA6
:100BA0003FEF4FE75FE7C501B4010E94F80C68E32F
:100BB00071E0181664F02FEF3FEF4FE75FE4C701D5
:100BC000B6010E94500E1816ACF46CE371E08AE690
:100BD00093E0CF911F910F91FF90EF90DF90CF9016
:100BE000BF90AF909F908F907F906F905F904F904D
:100BF0000C944D052FEF3FEF4FE75FECC701B601B7
:100C00000E94F80C87FDE1CF20E030E0A901C70188
:100C1000B6010E94F80C10E000E087FF0AC06DE208
:100C20008AE693E00E943F058C01F7FAF094F7F80A
:100C3000F094C0E060E070E080E09FE37C1641F05B
:100C400020E030E040E251E40E94FD0CCF5FF6CF9F
:100C5000A70196010E948C0C2B013C010E946F0D94
:100C60004B015C014AE00E945C057C01E00EF11E34
:100C7000CC23C1F1C501B4010E949E0D9B01AC01C2
:100C8000C301B2010E948B0C4B015C016EE28AE64B
:100C900093E00E943F05E80EF91EC15018F120E0D4
:100CA00030E040E251E4C501B4010E94550E2B0131
:100CB0003C010E946F0D4B01B12CA12C4AE0C501F3
:100CC000B4010E945C05E80EF91EC501B4010E9442
:100CD0009E0D9B01AC01C301B2010E948B0C4B0124
:100CE0005C01DBCFC701CF911F910F91FF90EF9077
:100CF000DF90CF90BF90AF909F908F907F906F903C
:100D00005F904F900895CF93DF93BC0181EC92E008
:100D10000E944D05EC0160E471E081EC92E00E94DC
:100D20004D058C0F9D1FDF91CF91089585ED809328
:100D3000BC008091370290913802A0913902B091A5
:100D40003A020796A11DB11D23E0B695A795979588
:100D500087952A95D1F72091BC0024FD03C01092FD
:100D60008002089540913702509138026091390213
:100D700070913A02452B462B472B69F30097A1054A
:100D8000B10541F025E32A95F1F700000197A1098B
:100D9000B109E1CF809136020C9411031F920F929A
:100DA0000FB60F9211242F933F934F935F936F933E
:100DB0007F938F939F93AF93BF93EF93FF9381ECB8
:100DC00092E00E940C01FF91EF91BF91AF919F9132
:100DD0008F917F916F915F914F913F912F910F90E4
:100DE0000FBE0F901F9018951F920F920FB60F9283
:100DF00011242F938F939F93EF93FF93E091D10250
:100E0000F091D2028081E091D702F091D80282FD68
:100E10001BC090818091DA028F5F8F732091DB027B
:100E2000821741F0E091DA02F0E0EF53FD4F958F29
:100E30008093DA02FF91EF919F918F912F910F9004
:100E40000FBE0F901F9018958081F4CF1F920F92C4
:100E50000FB60F9211242F933F938F939F93AF93CD
:100E6000BF938091A7029091A802A091A902B0918E
:100E7000AA023091A60223E0230F2D3758F50196E0
:100E8000A11DB11D2093A6028093A7029093A802F2
:100E9000A093A902B093AA028091AB029091AC02F8
:100EA000A091AD02B091AE020196A11DB11D80933B
:100EB000AB029093AC02A093AD02B093AE02BF918F
:100EC000AF919F918F913F912F910F900FBE0F90F7
:100ED0001F90189526E8230F0296A11DB11DD2CFB1
:100EE0001F920F920FB60F9211242F933F934F939F
:100EF0005F936F937F938F939F93AF93BF93EF9382
:100F0000FF938091B900887F803609F44AC0F0F5DC
:100F1000883209F4A7C018F5803109F49BC0B8F4F1
:100F2000882309F4F9C0883009F494C0FF91EF9147
:100F3000BF91AF919F918F917F916F915F914F91F1
:100F40003F912F910F900FBE0F901F9018958831F1
:100F500009F488C0803251F780937F0214C0803436
:100F600009F49DC040F48033B9F38833F9F68093D7
:100F70007F0285ECB0C0803509F485C0883509F45E
:100F800096C0883499F60E949606D0CF883909F425
:100F90008CC038F5883729F050F4883611F0803746
:100FA00029F683E08093800210927E0257C0883831
:100FB00009F47BC0803919F0803809F0B7CF8091EF
:100FC0007E02803208F071C0E0917E0281E08E0FD7
:100FD00080937E028091BB00F0E0E25AFD4F808357
:100FE0003DC0803B39F0E0F4803A09F479C0883A9A
:100FF00009F09CCF84E08093800210925D021092F1
:101000005C02E091B102F091B202099580915C021C
:1010100081110FC081E080935C0210923C0209C0F4
:10102000803C09F4A6CF883C09F4A3CF883B09F0A3
:101030007DCFE0915D0281E08E0F80935D02F0E054
:10104000E45CFD4F80818093BB0090915D028091B4
:101050005C0229C08091A5028093BB0085EC80933F
:10106000BC0064CF9091A4028091A302981758F518
:10107000E091A40281E08E0F8093A402F0E0ED578E
:10108000FD4F8081E9CFE091A40281E08E0F809333
:10109000A4028091BB00F0E0ED57FD4F808390915A
:1010A000A4028091A3029817C8F285E8D8CFE091F6
:1010B000A40281E08E0F8093A4028091BB00F0E037
:1010C000ED57FD4F80838091820281115CCF81E0DA
:1010D0008093810284EA8093BC001092800226CF24
:1010E00085EC8093BC001092800280917E02803259
:1010F00030F4E0917E02F0E0E25AFD4F1082609100
:101100007E0270E0E091AF02F091B0028EE592E0D5
:10111000099510927E020ACF10927F0234CFE1EC43
:10112000F2E01382128288EE93E0A0E0B0E08483C4
:101130009583A683B78328E031E03183208325ECB3
:1011400030E03587248724EC30E03787268720EC91
:1011500030E0318B208B21EC30E0338B228B22EC82
:1011600030E0358B248B26EC30E0378B268B118ECC
:10117000128E138E148EEEE5F3E0138212828483B6
:101180009583A683B7838AE191E091838083EAE621
:10119000F3E0138212828CE291E09183808387E2F4
:1011A00084838FE0858381E0868317821086118691
:1011B00012861386148615860895789484B5826005
:1011C00084BD84B5816084BD85B5826085BD85B5EB
:1011D000816085BD80916E00816080936E00109269
:1011E00081008091810082608093810080918100E4
:1011F0008160809381008091800081608093800075
:101200008091B10084608093B1008091B0008160D2
:101210008093B00080917A00846080937A008091FE
:101220007A00826080937A0080917A008160809356
:101230007A0080917A00806880937A001092C100D1
:101240001092B6021092B5021092B4021092B3023C
:101250000E94F3028CE890E09093B2028093B10276
:101260008DE890E09093B0028093AF0260E08AE650
:1012700093E00E94B80362E370E080E090E00E9497
:101280008E02109271031092720341E060E38AE6CD
:1012900093E00E94B0048BE991E40197F1F741E0FB
:1012A00060E38AE693E00E94B00483E592E0019750
:1012B000F1F741E060E38AE693E00E94B004CFE8F2
:1012C000D0E0CE010197F1F741E060E28AE693E0D9
:1012D0000E94B004CE010197F1F740E068E28AE68F
:1012E00093E00E94B004CE010197F1F710927103D0
:1012F0001092720360917603862F84608093760348
:101300006C6040E08AE693E00E94B004CE01019751
:10131000F1F70E941205109271031092720360910E
:101320007703862F826080937703666040E08AE6C9
:1013300093E00E94B0042197F1F70E94A404E09189
:10134000D102F091D20282E08083E091CD02F0914F
:10135000CE021082E091CF02F091D0028FEC808318
:101360001092D902E091D502F091D60286E08083F6
:10137000E091D302F091D402808180618083E0917A
:10138000D302F091D402808188608083E091D302FF
:10139000F091D402808180688083E091D302F09143
:1013A000D40280818F7D808360E08EE00E941B02EA
:1013B00060E08FE00E941B0262E088E00E941B0256
:1013C00062E089E00E941B0262E085E00E941B024D
:1013D00061E082E00E941B0261E083E00E941B0248
:1013E00061E084E00E941B0261E086E00E941B0233
:1013F00061E087E00E941B0261E087E00E94ED014E
:1014000066E970E080E090E00E948E0260E087E094
:101410000E94ED0162E370E080E090E00E948E02A5
:1014200061E087E00E94ED0166E970E080E090E015
:101430000E948E0260E087E00E94ED010E94A404F9
:1014400062E370E080E090E00E948E0260E080E065
:101450000E94200583E491E00E94A20561E080E003
:101460000E94200584E591E00E94A20564EC79E0E9
:1014700080E090E00E948E020E9412050E949D046E
:1014800062E370E080E090E00E948E020E94A4047B
:1014900062E370E080E090E00E948E0260E080E015
:1014A0000E94200583E691E00E94A20561E080E0B1
:1014B0000E94200583E791E00E94A20564EC79E098
:1014C00080E090E00E948E020E9412050E949D041E
:1014D00062E370E080E090E00E948E020E94A4042B
:1014E00062E370E080E090E00E948E0260E080E0C5
:1014F0000E94200583E891E00E94A20561E080E05F
:101500000E94200583E991E00E94A20564EC79E045
:1015100080E090E00E948E020E9412050E949D04CD
:1015200062E370E080E090E00E948E0261E087E07C
:101530000E94ED0166E970E080E090E00E948E027A
:1015400060E087E00E94ED0100E010E0C1E0EE24E1
:10155000E394F12C88E00E94C401892B09F499C01E
:1015600085E00E94C401892B09F093C08091BC02E0
:10157000882309F484C084EA91E00E94830669E12B
:1015800070E080E090E00E948E028091BA0290911B
:10159000BB02892B09F06FC061E082E00E94ED017F
:1015A00061E083E00E94ED0160E084E00E94ED01D3
:1015B0000E94C0024B015C018092BD029092BE026B
:1015C000A092BF02B092C0020E94C00268197909BD
:1015D0008A099B09613A7F4081059105B0F485E055
:1015E0000E94C401892B29F489E00E94C401892B3F
:1015F00059F360E082E00E94ED0160E083E00E9428
:10160000ED0160E084E00E94ED010E94C002609361
:10161000BD027093BE028093BF029093C00285E02A
:101620000E94C401892B11F560E083E00E94ED0166
:1016300064EF71E080E090E00E948E0285E00E94FD
:10164000C401892B31F489E00E94C40161E0892B37
:1016500049F060E082E00E94ED0160E083E00E94DA
:10166000ED0160E084E00E94ED0105C089E00E9488
:10167000C401892BC9F2F092BB02E092BA02C09376
:10168000B9021092BC026AE070E080E090E00E9433
:101690008E0288E00E94C401892B91F48091B902E6
:1016A000882371F01092B902C093BC0282EB91E0E2
:1016B0000E9483066AE070E080E090E00E948E0263
:1016C00089E00E94C401892B41F18091B8028823EE
:1016D000D1F08CEB91E00E94830669E170E080E03C
:1016E00090E00E948E0260E082E00E94ED0160E0E6
:1016F00083E00E94ED0160E084E00E94ED01109221
:10170000BB021092BA02C093B7021092B8026AE00C
:1017100070E080E090E00E948E0289E00E94C401A7
:10172000892B91F48091B702882371F01092B7024F
:10173000C093B8028AEC91E00E9483066AE070E0F0
:1017400080E090E00E948E0285E00E94C401892B17
:1017500009F4DCC061E086E00E94ED0160E082E017
:101760000E94ED0160E083E00E94ED0160E084E012
:101770000E94ED011092BB021092BA026AE070E082
:1017800080E090E00E948E020E94C0028090BD0224
:101790009090BE02A090BF02B090C0026819790973
:1017A0008A099B09683E73408105910508F4A2C02F
:1017B0000E94120562E370E080E090E00E948E02D9
:1017C00060E080E00E94200584ED91E00E94A20587
:1017D00060E08AE00E94200585E00E94C401892B18
:1017E00021F08FED91E00E94A20585E00E94C401E6
:1017F000892B21F486EE91E00E94A20561E080E051
:101800000E9420058DEE91E00E94A20561E082E039
:101810000E9420058EE00E945702BC01990F880BA0
:10182000990B0E94A00D20E030E040EA50E40E94B5
:10183000550E20E030EC4FE754E40E94FD0C2AE006
:1018400037ED43E25CE30E94FD0C42E00E94A705F5
:1018500061E087E00E94200581EF91E00E94A205EF
:1018600061E089E00E94200580EF91E00E94A205DE
:1018700061E08BE00E9420058FE00E945702BC01CE
:10188000990F880B990B0E94A00D20E030E040EAF0
:1018900050E40E94550E20E030EC4FE754E40E94E3
:1018A000FD0C2AE037ED43E25CE30E94FD0C42E0D0
:1018B0000E94A70561E08FE00E94200581EF91E082
:1018C0000E94A20566E970E080E090E00E948E022E
:1018D0000E949D0462E370E080E090E00E948E022E
:1018E0000E94C0026093BD027093BE028093BF024B
:1018F0009093C0020115110509F42CCE0E94F80046
:10190000882309F427CE0E94000024CE60E086E000
:101910000E94ED0133CF5058BB27AA270E94A30C89
:101920000C94160E0E94080E38F00E940F0E20F044
:1019300039F49F3F19F426F40C94050E0EF4E0954B
:10194000E7FB0C94FF0DE92F0E94270E58F3BA17FE
:10195000620773078407950720F079F4A6F50C94C5
:10196000490E0EF4E0950B2EBA2FA02D0B01B901F4
:1019700090010C01CA01A0011124FF27591B99F005
:10198000593F50F4503E68F11A16F040A22F232F11
:10199000342F4427585FF3CF469537952795A79561
:1019A000F0405395C9F77EF41F16BA0B620B730B08
:1019B000840BBAF09150A1F0FF0FBB1F661F771F79
:1019C000881FC2F70EC0BA0F621F731F841F48F42E
:1019D000879577956795B795F7959E3F08F0B0CFB7
:1019E0009395880F08F09927EE0F9795879508959E
:1019F0000E94DB0D08F481E008950E94110D0C9403
:101A0000160E0E940F0E58F00E94080E40F029F4A6
:101A10005F3F29F00C94FF0D51110C944A0E0C9469
:101A2000050E0E94270E68F39923B1F3552391F315
:101A3000951B550BBB27AA2762177307840738F03D
:101A40009F5F5F4F220F331F441FAA1FA9F335D09A
:101A50000E2E3AF0E0E832D091505040E695001C4E
:101A6000CAF72BD0FE2F29D0660F771F881FBB1F08
:101A7000261737074807AB07B0E809F0BB0B802DE6
:101A8000BF01FF2793585F4F3AF09E3F510578F012
:101A90000C94FF0D0C944A0E5F3FE4F3983ED4F390
:101AA000869577956795B795F7959F5FC9F7880FE6
:101AB000911D9695879597F90895E1E0660F771F38
:101AC000881FBB1F621773078407BA0720F0621BC9
:101AD000730B840BBA0BEE1F88F7E09508950E94F4
:101AE0002F0E88F09F5798F0B92F9927B751B0F073
:101AF000E1F0660F771F881F991F1AF0BA95C9F792
:101B000014C0B13091F00E94490EB1E008950C94D8
:101B1000490E672F782F8827B85F39F0B93FCCF38B
:101B2000869577956795B395D9F73EF4909580950E
:101B3000709561957F4F8F4F9F4F0895E89409C02E
:101B400097FB3EF490958095709561957F4F8F4FF0
:101B50009F4F9923A9F0F92F96E9BB279395F69506
:101B6000879577956795B795F111F8CFFAF4BB0F84
:101B700011F460FF1BC06F5F7F4F8F4F9F4F16C0E8
:101B8000882311F096E911C0772321F09EE8872F72
:101B9000762F05C0662371F096E8862F70E060E02E
:101BA0002AF09A95660F771F881FDAF7880F9695A7
:101BB000879597F90895990F0008550FAA0BE0E84B
:101BC000FEEF16161706E807F907C0F012161306FF
:101BD000E407F50798F0621B730B840B950B39F43F
:101BE0000A2661F0232B242B252B21F408950A26A5
:101BF00009F4A140A6958FEF811D811D089597F9E5
:101C00009F6780E870E060E008959FEF80EC0895A2
:101C100000240A94161617061806090608950024CB
:101C20000A9412161306140605060895092E039445
:101C3000000C11F4882352F0BB0F40F4BF2B11F4B9
:101C400060FF04C06F5F7F4F8F4F9F4F089557FD18
:101C50009058440F551F59F05F3F71F04795880F1A
:101C600097FB991F61F09F3F79F0879508951216B1
:101C700013061406551FF2CF4695F1DF08C016165D
:101C800017061806991FF1CF86957105610508940E
:101C90000895E894BB2766277727CB0197F9089525
:101CA0000E94DB0D08F48FEF08950E94680E0C94DB
:101CB000160E0E94080E38F00E940F0E20F0952399
:101CC00011F00C94FF0D0C94050E11240C944A0E87
:101CD0000E94270E70F3959FC1F3950F50E0551F9A
:101CE000629FF001729FBB27F00DB11D639FAA2771
:101CF000F00DB11DAA1F649F6627B00DA11D661FC0
:101D0000829F2227B00DA11D621F739FB00DA11DE0
:101D1000621F839FA00D611D221F749F3327A00D9A
:101D2000611D231F849F600D211D822F762F6A2F36
:101D300011249F5750409AF0F1F088234AF0EE0F9B
:101D4000FF1FBB1F661F771F881F91505040A9F7C8
:101D50009E3F510580F00C94FF0D0C944A0E5F3F9E
:101D6000E4F3983ED4F3869577956795B795F79504
:101D7000E7959F5FC1F7FE2B880F911D969587957C
:101D800097F908950E94DB0D880B990B0895A1E245
:101D90001A2EAA1BBB1BFD010DC0AA1FBB1FEE1FE5
:101DA000FF1FA217B307E407F50720F0A21BB30B30
:101DB000E40BF50B661F771F881F991F1A9469F7AC
:101DC00060957095809590959B01AC01BD01CF0108
:101DD0000895EE0FFF1F0590F491E02D0994F894FB
:101DE000FFCF00401454000000002E018E00BB0005
:101DF0007B01EC00CA00DE000000000089035C03E8
:101E0000AD043203550342033303000000003F05D5
:101E10008E00AD04AC046E616E00696E66006F7674
:101E200066000D0A00554E4955424520515549520C
:101E3000494E4F504F0050524F4A45544F20454E47
:101E4000472030310047494C4D41522050204152EB
:101E500041554A4F0052413A3131323538333320FF
:101E6000202020200052454C4520454C4554524FDF
:101E70004E49434F0053656A612062656D20766963
:101E80006E646F2020007061727469752062743115
:101E90002120200052455345542062743100706166
:101EA00072746975206274322120200052455345B6
:101EB000542062743200494E5445524C4F434B3AC1
:101EC00000415449564F21004C4956524521004D7E
:061ED00054004D43000028
:107E0000112484B714BE81FFF0D085E080938100F7
:107E100082E08093C00088E18093C10086E0809377
:107E2000C20080E18093C4008EE0C9D0259A86E02C
:107E300020E33CEF91E0309385002093840096BBD3
:107E4000B09BFECF1D9AA8958150A9F7CC24DD24C4
:107E500088248394B5E0AB2EA1E19A2EF3E0BF2EE7
:107E6000A2D0813461F49FD0082FAFD0023811F036
:107E7000013811F484E001C083E08DD089C08234E0
:107E800011F484E103C0853419F485E0A6D080C0E4
:107E9000853579F488D0E82EFF2485D0082F10E0AE
:107EA000102F00270E291F29000F111F8ED06801E7
:107EB0006FC0863521F484E090D080E0DECF843638
:107EC00009F040C070D06FD0082F6DD080E0C81688
:107ED00080E7D80618F4F601B7BEE895C0E0D1E017
:107EE00062D089930C17E1F7F0E0CF16F0E7DF06D8
:107EF00018F0F601B7BEE89568D007B600FCFDCFD4
:107F0000A601A0E0B1E02C9130E011968C91119780
:107F100090E0982F8827822B932B1296FA010C0160
:107F200087BEE89511244E5F5F4FF1E0A038BF0790
:107F300051F7F601A7BEE89507B600FCFDCF97BE46
:107F4000E89526C08437B1F42ED02DD0F82E2BD052
:107F50003CD0F601EF2C8F010F5F1F4F84911BD097
:107F6000EA94F801C1F70894C11CD11CFA94CF0C13
:107F7000D11C0EC0853739F428D08EE10CD085E9AC
:107F80000AD08FE07ACF813511F488E018D01DD067
:107F900080E101D065CF982F8091C00085FFFCCF94
:107FA0009093C60008958091C00087FFFCCF809118
:107FB000C00084FD01C0A8958091C6000895E0E648
:107FC000F0E098E1908380830895EDDF803219F02E
:107FD00088E0F5DFFFCF84E1DECF1F93182FE3DFCA
:107FE0001150E9F7F2DF1F91089580E0E8DFEE27F6
:047FF000FF270994CA
:027FFE00040479
:00000001FF
